:100000000C9435000C945D000C945D000C945D0024
:100010000C945D000C945D000C945D000C945D00EC
:100020000C945D000C945D000C945D000C94130224
:100030000C945D000C941E020C945D000C945D0009
:100040000C9471010C945D000C94E1010C94BB01C3
:100050000C945D000C945D000C945D000C945D00AC
:100060000C945D000C945D00280311241FBECFEF9B
:10007000D8E0DEBFCDBF11E0A0E0B1E0EAE1FDE0F5
:1000800002C005900D92AE32B107D9F721E0AEE281
:10009000B1E001C01D92A43DB207E1F710E0C5E355
:1000A000D0E004C02197FE010E949603C433D1071B
:1000B000C9F70E943C020C948B060C940000CF926E
:1000C000DF92EF92FF920F931F93CF93DF936C0118
:1000D0007A018B01C0E0D0E0CE15DF0581F0D801B8
:1000E0006D918D01D601ED91FC910190F081E02D93
:1000F000C6010995892B11F02196EECF7E01C7012B
:10010000DF91CF911F910F91FF90EF90DF90CF90F3
:100110000895089580E090E00895FC01538D448D8A
:10012000252F30E0842F90E0821B930B541710F0A2
:10013000CF96089501970895FC01918D828D9817AF
:1001400061F0828DDF01A80FB11D5D968C91928DBB
:100150009F5F9F73928F90E008958FEF9FEF0895B8
:10016000FC01918D828D981731F0828DE80FF11D81
:10017000858D90E008958FEF9FEF0895FC01918D9C
:10018000228D892F90E0805C9F4F821B91098F7395
:10019000992708958EE291E00E94BE0021E0892B0C
:1001A00009F420E0822F0895FC01848DDF01A80F5F
:1001B000B11DA35ABF4F2C91848D90E001968F738F
:1001C0009927848FA689B7892C93A089B1898C91AE
:1001D000837080648C93938D848D981306C00288FD
:1001E000F389E02D80818F7D80830895EF92FF92C7
:1001F0000F931F93CF93DF93EC0181E0888F9B8D4A
:100200008C8D981305C0E889F989808185FD26C009
:10021000F62E0B8D10E00F5F1F4F0F731127E02E8E
:100220008C8DE8120CC00FB607FCFACFE889F9896B
:10023000808185FFF5CFCE010E94D400F1CF8B8D58
:10024000FE01E80FF11DE35AFF4FF0829FB7F894CB
:100250000B8FEA89FB89808180620AC09FB7F8947E
:10026000EE89FF896083E889F989808183708064E1
:1002700080839FBF81E090E0DF91CF911F910F912C
:10028000FF90EF900895CF93DF93EC01888D882342
:10029000C9F0EA89FB89808185FD05C0A889B989F3
:1002A0008C9186FD0FC00FB607FCF5CF808185FFCE
:1002B000F2CFA889B9898C9185FFEDCFCE010E943C
:1002C000D400E7CFDF91CF91089580E090E0892BB3
:1002D00029F00E94CA0081110C94000008950E9428
:1002E0009C031F920F920FB60F9211242F933F93EE
:1002F0008F939F93AF93BF938091D0019091D10141
:10030000A091D201B091D3013091CF0123E0230F0E
:100310002D3720F40196A11DB11D05C026E8230F3D
:100320000296A11DB11D2093CF018093D00190931F
:10033000D101A093D201B093D3018091CB019091D0
:10034000CC01A091CD01B091CE010196A11DB11DAE
:100350008093CB019093CC01A093CD01B093CE01BB
:10036000BF91AF919F918F913F912F910F900FBEB1
:100370000F901F9018951F920F920FB60F92112495
:100380002F933F934F935F936F937F938F939F939D
:10039000AF93BF93EF93FF938EE291E00E94D4005E
:1003A000FF91EF91BF91AF919F918F917F916F914D
:1003B0005F914F913F912F910F900FBE0F901F9023
:1003C00018951F920F920FB60F9211242F938F93AF
:1003D0009F93EF93FF93E0913E01F0913F01808165
:1003E000E0914401F091450182FD12C0908180911D
:1003F00047018F5F8F7320914801821751F0E09180
:100400004701F0E0E25DFE4F958F8093470101C008
:100410008081FF91EF919F918F912F910F900FBE4F
:100420000F901F9018951F920F920FB60F921124E4
:1004300023980F900FBE0F901F9018951F920F9248
:100440000FB60F9211242F938F939F9320917800D2
:100450008091790090E0982F8827820F911D9093CA
:10046000890080938800239A9F918F912F910F90FC
:100470000FBE0F901F901895CF93DF93CDB7DEB7C7
:10048000CF5FD1090FB6F894DEBF0FBECDBF789411
:1004900084B5826084BD84B5816084BD85B5826089
:1004A00085BD85B5816085BD80916E00816080933A
:1004B0006E001092810080918100826080938100A3
:1004C00080918100816080938100809180008160B3
:1004D000809380008091B10084608093B10080910E
:1004E000B00081608093B00080917A008460809336
:1004F0007A0080917A00826080937A0080917A00FD
:10050000816080937A0080917A00806880937A007D
:100510001092C100E0913E01F0913F0182E08083A2
:10052000E0913A01F0913B011082E0913C01F091A1
:100530003D0180E1808310924601E0914201F091FB
:10054000430186E08083E0914001F0914101808188
:1005500080618083E0914001F09141018081886059
:100560008083E0914001F091410180818068808327
:10057000E0914001F091410180818F7D8083239A39
:1005800080E48093B0008091B00082608093B000DE
:1005900011E01093B1008CE08093B3002091B30080
:1005A00030E02F5F3F4F220F331F032E000C440B10
:1005B000550B60E87EE380E090E00E9455035F9376
:1005C0004F933F932F9382E191E09F938F93CE01BE
:1005D00001967C019F938F930E94A103F7010190E4
:1005E0000020E9F73197AF014E195F09B7018EE29C
:1005F00091E00E945F0042E050E06BE271E08EE229
:1006000091E00E945F008091800083608093800071
:1006100088E08093810080918100816080938100D7
:1006200083E080936F0080EC80937C0080EE809369
:100630007A0080917A00866080937A0010937E0021
:100640000FB6F894DEBF0FBECDBF0E946501FDCF8F
:10065000EEE2F1E01382128288EE93E0A0E0B0E0D7
:1006600084839583A683B78384E091E0918380831C
:1006700085EC90E09587848784EC90E09787868767
:1006800080EC90E0918B808B81EC90E0938B828B5F
:1006900082EC90E0958B848B86EC90E0978B868B38
:1006A000118E128E138E148E0895052E97FB1EF454
:1006B00000940E946C0357FD07D00E94740307FC4E
:1006C00003D04EF40C946C035095409530952195D1
:1006D0003F4F4F4F5F4F089590958095709561956E
:1006E0007F4F8F4F9F4F0895A1E21A2EAA1BBB1B6D
:1006F000FD010DC0AA1FBB1FEE1FFF1FA217B307EE
:10070000E407F50720F0A21BB30BE40BF50B661F03
:10071000771F881F991F1A9469F7609570958095C7
:1007200090959B01AC01BD01CF010895EE0FFF1F15
:100730000590F491E02D099481E090E0F8940C94F8
:100740008B06AEE0B0E0E7EAF3E00C9462060D89B8
:100750001E8986E08C831A8309838FEF9FE79E832F
:100760008D83AE01475E5F4F6F89788DCE01019614
:100770000E94C303EF81F885E00FF11F10822E96CF
:10078000E4E00C947E06ABE0B0E0E9ECF3E00C941E
:1007900054066C017B018A01FC0117821682838159
:1007A00081FFCCC1CE0101963C01F6019381F70196
:1007B00093FD859193FF81917F01882309F4BAC14C
:1007C000853239F493FD859193FF81917F018532C4
:1007D00029F4B60190E00E94BA05E7CF912C212CB4
:1007E000312CFFE1F315D8F08B3279F038F48032F8
:1007F00079F08332A1F4232D20611DC08D3261F088
:10080000803369F4232D216016C0832D8260382E39
:10081000E32DE4603E2E2AC0F32DF8601DC037FCA6
:100820002DC020ED280F2A3040F08E32B9F436FC6E
:1008300081C1232D2064322E19C036FE06C08AE005
:10084000989E200D1124922E11C0EAE02E9E200DBC
:100850001124222EF32DF0623F2E08C08C3621F495
:10086000832D8068382E02C0883641F4F70193FD4D
:10087000859193FF81917F018111B3CF982F9F7D47
:100880009554933028F40C5F1F4F9FE399830DC05C
:10089000833631F0833771F0833509F059C021C0B8
:1008A000F801808189830E5F1F4F88248394912CE7
:1008B000530113C02801F2E04F0E511CF801A08033
:1008C000B18036FE03C0692D70E002C06FEF7FEF8C
:1008D000C5010E94AF054C018201F32DFF773F2E29
:1008E00016C0280122E0420E511CF801A080B18000
:1008F00036FE03C0692D70E002C06FEF7FEFC501C7
:100900000E94A4054C01F32DF0683F2E820133FCB8
:100910001BC0822D90E088169906B0F4B60180E2E3
:1009200090E00E94BA052A94F4CFF50137FC859136
:1009300037FE81915F01B60190E00E94BA05211057
:100940002A9421E0821A91088114910471F7E8C079
:10095000843611F0893641F5F80137FE07C0608111
:100960007181828193810C5F1F4F08C0608171810A
:10097000072E000C880B990B0E5F1F4FF32DFF768F
:100980003F2E97FF09C090958095709561957F4F98
:100990008F4F9F4FF0683F2E2AE030E0A3010E9466
:1009A000F605882E861845C0853731F4232D2F7E15
:1009B000B22E2AE030E025C0932D997FB92E8F36D4
:1009C000C1F018F4883579F0B5C0803719F0883750
:1009D00021F0B0C0E92FE061BE2EB4FE0DC0FB2DAA
:1009E000F460BF2E09C034FE0AC0292F2660B22E43
:1009F00006C028E030E005C020E130E002C020E180
:100A000032E0F801B7FE07C0608171818281938175
:100A10000C5F1F4F06C06081718180E090E00E5F27
:100A20001F4FA3010E94F605882E8618FB2DFF7725
:100A30003F2E36FE0DC0232D2E7FA22E891458F492
:100A400034FE0BC032FC09C0832D8E7EA82E05C05B
:100A5000B82CA32C03C0B82C01C0B92CA4FE0FC025
:100A6000FE01E80DF11D8081803321F49A2D997EDD
:100A7000A92E09C0A2FE06C0B394B39404C08A2D67
:100A8000867809F0B394A3FC11C0A0FE06C0B2148E
:100A900088F4280C922C9B180EC0B21460F4B60196
:100AA00080E290E00E94BA05B394F7CFB21418F434
:100AB0002B1802C0982C212CA4FE10C0B60180E394
:100AC00090E00E94BA05A2FE17C0A1FC03C088E70F
:100AD00090E002C088E590E0B6010CC08A2D8678CF
:100AE00059F0A1FE02C08BE201C080E2A7FC8DE2BA
:100AF000B60190E00E94BA05891438F4B60180E38B
:100B000090E00E94BA059A94F7CF8A94F301E80D19
:100B1000F11D8081B60190E00E94BA058110F5CFE9
:100B2000222009F442CEB60180E290E00E94BA058C
:100B30002A94F6CFF6018681978102C08FEF9FEF4E
:100B40002B96E2E10C947006FC0105906150704018
:100B50000110D8F7809590958E0F9F1F0895FC0186
:100B60006150704001900110D8F7809590958E0FDC
:100B70009F1F08950F931F93CF93DF93FB01238152
:100B800021FD03C08FEF9FEF2CC022FF16C04681CE
:100B90005781248135814217530744F4A081B181E4
:100BA0009D012F5F3F4F318320838C9326813781B6
:100BB0002F5F3F4F3783268314C08B01EC01FB016D
:100BC0000084F185E02D0995892BE1F6D801169670
:100BD0008D919C911797019617969C938E931697DB
:100BE000CE01DF91CF911F910F910895FA01AA27AD
:100BF000283051F1203181F1E8946F936E7F6E5F60
:100C00007F4F8F4F9F4FAF4FB1E03ED0B4E03CD00D
:100C1000670F781F891F9A1FA11D680F791F8A1FF0
:100C2000911DA11D6A0F711D811D911DA11D20D057
:100C300009F468943F912AE0269F11243019305D11
:100C40003193DEF6CF010895462F4770405D419302
:100C5000B3E00FD0C9F7F6CF462F4F70405D4A334F
:100C600018F0495D31FD4052419302D0A9F7EACF17
:100C7000B4E0A6959795879577956795BA95C9F746
:100C800000976105710508959B01AC010A2E069439
:100C90005795479537952795BA95C9F7620F731FF2
:100CA000841F951FA01D08952F923F924F925F922F
:100CB0006F927F928F929F92AF92BF92CF92DF926C
:100CC000EF92FF920F931F93CF93DF93CDB7DEB7D1
:100CD000CA1BDB0B0FB6F894DEBF0FBECDBF099465
:100CE0002A88398848885F846E847D848C849B84BC
:100CF000AA84B984C884DF80EE80FD800C811B81CA
:100D0000AA81B981CE0FD11D0FB6F894DEBF0FBEF8
:0A0D1000CDBFED010895F894FFCF68
:100D1A0000000000F6005F008D004301BE009C0049
:100D2A00B00057696C6C2062726F6164636173749E
:0E0D3A00206174202564204B487A000D0A00C9
:107E0000112484B714BE81FFF0D085E080938100F7
:107E100082E08093C00088E18093C10086E0809377
:107E2000C20080E18093C4008EE0C9D0259A86E02C
:107E300020E33CEF91E0309385002093840096BBD3
:107E4000B09BFECF1D9AA8958150A9F7CC24DD24C4
:107E500088248394B5E0AB2EA1E19A2EF3E0BF2EE7
:107E6000A2D0813461F49FD0082FAFD0023811F036
:107E7000013811F484E001C083E08DD089C08234E0
:107E800011F484E103C0853419F485E0A6D080C0E4
:107E9000853579F488D0E82EFF2485D0082F10E0AE
:107EA000102F00270E291F29000F111F8ED06801E7
:107EB0006FC0863521F484E090D080E0DECF843638
:107EC00009F040C070D06FD0082F6DD080E0C81688
:107ED00080E7D80618F4F601B7BEE895C0E0D1E017
:107EE00062D089930C17E1F7F0E0CF16F0E7DF06D8
:107EF00018F0F601B7BEE89568D007B600FCFDCFD4
:107F0000A601A0E0B1E02C9130E011968C91119780
:107F100090E0982F8827822B932B1296FA010C0160
:107F200087BEE89511244E5F5F4FF1E0A038BF0790
:107F300051F7F601A7BEE89507B600FCFDCF97BE46
:107F4000E89526C08437B1F42ED02DD0F82E2BD052
:107F50003CD0F601EF2C8F010F5F1F4F84911BD097
:107F6000EA94F801C1F70894C11CD11CFA94CF0C13
:107F7000D11C0EC0853739F428D08EE10CD085E9AC
:107F80000AD08FE07ACF813511F488E018D01DD067
:107F900080E101D065CF982F8091C00085FFFCCF94
:107FA0009093C60008958091C00087FFFCCF809118
:107FB000C00084FD01C0A8958091C6000895E0E648
:107FC000F0E098E1908380830895EDDF803219F02E
:107FD00088E0F5DFFFCF84E1DECF1F93182FE3DFCA
:107FE0001150E9F7F2DF1F91089580E0E8DFEE27F6
:047FF000FF270994CA
:027FFE00040479
:0400000300007E007B
:00000001FF
